{
	"contracts/Storage.sol": {
		"Storage": {
			"abi": [
				{
					"inputs": [],
					"name": "STORAGE_SLOT",
					"outputs": [
						{
							"internalType": "bytes32",
							"name": "",
							"type": "bytes32"
						}
					],
					"stateMutability": "view",
					"type": "function"
				},
				{
					"inputs": [
						{
							"internalType": "string",
							"name": "namespace",
							"type": "string"
						}
					],
					"name": "slot",
					"outputs": [
						{
							"internalType": "bytes32",
							"name": "",
							"type": "bytes32"
						}
					],
					"stateMutability": "pure",
					"type": "function"
				}
			],
			"devdoc": {
				"kind": "dev",
				"methods": {},
				"version": 1
			},
			"evm": {
				"assembly": "    /* \"contracts/Storage.sol\":61:450  contract Storage {... */\n  mstore(0x40, 0x80)\n  callvalue\n  dup1\n  iszero\n  tag_1\n  jumpi\n  revert(0x00, 0x00)\ntag_1:\n  pop\n  dataSize(sub_0)\n  dup1\n  dataOffset(sub_0)\n  0x00\n  codecopy\n  0x00\n  return\nstop\n\nsub_0: assembly {\n        /* \"contracts/Storage.sol\":61:450  contract Storage {... */\n      mstore(0x40, 0x80)\n      callvalue\n      dup1\n      iszero\n      tag_1\n      jumpi\n      revert(0x00, 0x00)\n    tag_1:\n      pop\n      jumpi(tag_2, lt(calldatasize, 0x04))\n      shr(0xe0, calldataload(0x00))\n      dup1\n      0x517d217e\n      eq\n      tag_3\n      jumpi\n      dup1\n      0x5835d922\n      eq\n      tag_4\n      jumpi\n    tag_2:\n      revert(0x00, 0x00)\n        /* \"contracts/Storage.sol\":287:447  bytes32 public constant STORAGE_SLOT =... */\n    tag_3:\n      tag_5\n      tag_6\n      jump\t// in\n    tag_5:\n      mload(0x40)\n      tag_7\n      swap2\n      swap1\n      tag_8\n      jump\t// in\n    tag_7:\n      mload(0x40)\n      dup1\n      swap2\n      sub\n      swap1\n      return\n        /* \"contracts/Storage.sol\":84:281  function slot(string calldata namespace) external pure returns (bytes32) {... */\n    tag_4:\n      tag_9\n      0x04\n      dup1\n      calldatasize\n      sub\n      dup2\n      add\n      swap1\n      tag_10\n      swap2\n      swap1\n      tag_11\n      jump\t// in\n    tag_10:\n      tag_12\n      jump\t// in\n    tag_9:\n      mload(0x40)\n      tag_13\n      swap2\n      swap1\n      tag_8\n      jump\t// in\n    tag_13:\n      mload(0x40)\n      dup1\n      swap2\n      sub\n      swap1\n      return\n        /* \"contracts/Storage.sol\":287:447  bytes32 public constant STORAGE_SLOT =... */\n    tag_6:\n        /* \"contracts/Storage.sol\":441:445  0xff */\n      0xff\n        /* \"contracts/Storage.sol\":425:447  bytes32(uint256(0xff)) */\n      0x00\n      shl\n        /* \"contracts/Storage.sol\":424:447  ~bytes32(uint256(0xff)) */\n      not\n        /* \"contracts/Storage.sol\":418:419  1 */\n      0x01\n        /* \"contracts/Storage.sol\":363:414  keccak256(\"fevertokens.storage.ConditionPrecedent\") */\n      0x6719902dd113eb6a45fca0586cd9076c175b5e955e807b7798b727d3d4d60ac2\n        /* \"contracts/Storage.sol\":355:415  uint256(keccak256(\"fevertokens.storage.ConditionPrecedent\")) */\n      0x00\n      shr\n        /* \"contracts/Storage.sol\":355:419  uint256(keccak256(\"fevertokens.storage.ConditionPrecedent\")) - 1 */\n      tag_14\n      swap2\n      swap1\n      tag_15\n      jump\t// in\n    tag_14:\n        /* \"contracts/Storage.sol\":344:420  abi.encode(uint256(keccak256(\"fevertokens.storage.ConditionPrecedent\")) - 1) */\n      add(0x20, mload(0x40))\n      tag_16\n      swap2\n      swap1\n      tag_17\n      jump\t// in\n    tag_16:\n      mload(0x40)\n      0x20\n      dup2\n      dup4\n      sub\n      sub\n      dup2\n      mstore\n      swap1\n      0x40\n      mstore\n        /* \"contracts/Storage.sol\":334:421  keccak256(abi.encode(uint256(keccak256(\"fevertokens.storage.ConditionPrecedent\")) - 1)) */\n      dup1\n      mload\n      swap1\n      0x20\n      add\n      keccak256\n        /* \"contracts/Storage.sol\":334:447  keccak256(abi.encode(uint256(keccak256(\"fevertokens.storage.ConditionPrecedent\")) - 1)) & ~bytes32(uint256(0xff)) */\n      and\n        /* \"contracts/Storage.sol\":287:447  bytes32 public constant STORAGE_SLOT =... */\n      dup2\n      jump\t// out\n        /* \"contracts/Storage.sol\":84:281  function slot(string calldata namespace) external pure returns (bytes32) {... */\n    tag_12:\n        /* \"contracts/Storage.sol\":148:155  bytes32 */\n      0x00\n        /* \"contracts/Storage.sol\":268:272  0xff */\n      0xff\n        /* \"contracts/Storage.sol\":252:274  bytes32(uint256(0xff)) */\n      0x00\n      shl\n        /* \"contracts/Storage.sol\":251:274  ~bytes32(uint256(0xff)) */\n      not\n        /* \"contracts/Storage.sol\":245:246  1 */\n      0x01\n        /* \"contracts/Storage.sol\":230:239  namespace */\n      dup5\n      dup5\n        /* \"contracts/Storage.sol\":213:240  abi.encodePacked(namespace) */\n      add(0x20, mload(0x40))\n      tag_19\n      swap3\n      swap2\n      swap1\n      tag_20\n      jump\t// in\n    tag_19:\n      mload(0x40)\n      0x20\n      dup2\n      dup4\n      sub\n      sub\n      dup2\n      mstore\n      swap1\n      0x40\n      mstore\n        /* \"contracts/Storage.sol\":203:241  keccak256(abi.encodePacked(namespace)) */\n      dup1\n      mload\n      swap1\n      0x20\n      add\n      keccak256\n        /* \"contracts/Storage.sol\":195:242  uint256(keccak256(abi.encodePacked(namespace))) */\n      0x00\n      shr\n        /* \"contracts/Storage.sol\":195:246  uint256(keccak256(abi.encodePacked(namespace))) - 1 */\n      tag_21\n      swap2\n      swap1\n      tag_15\n      jump\t// in\n    tag_21:\n        /* \"contracts/Storage.sol\":184:247  abi.encode(uint256(keccak256(abi.encodePacked(namespace))) - 1) */\n      add(0x20, mload(0x40))\n      tag_22\n      swap2\n      swap1\n      tag_17\n      jump\t// in\n    tag_22:\n      mload(0x40)\n      0x20\n      dup2\n      dup4\n      sub\n      sub\n      dup2\n      mstore\n      swap1\n      0x40\n      mstore\n        /* \"contracts/Storage.sol\":174:248  keccak256(abi.encode(uint256(keccak256(abi.encodePacked(namespace))) - 1)) */\n      dup1\n      mload\n      swap1\n      0x20\n      add\n      keccak256\n        /* \"contracts/Storage.sol\":174:274  keccak256(abi.encode(uint256(keccak256(abi.encodePacked(namespace))) - 1)) & ~bytes32(uint256(0xff)) */\n      and\n        /* \"contracts/Storage.sol\":167:274  return keccak256(abi.encode(uint256(keccak256(abi.encodePacked(namespace))) - 1)) & ~bytes32(uint256(0xff)) */\n      swap1\n      pop\n        /* \"contracts/Storage.sol\":84:281  function slot(string calldata namespace) external pure returns (bytes32) {... */\n      swap3\n      swap2\n      pop\n      pop\n      jump\t// out\n        /* \"#utility.yul\":7:84   */\n    tag_23:\n        /* \"#utility.yul\":44:51   */\n      0x00\n        /* \"#utility.yul\":73:78   */\n      dup2\n        /* \"#utility.yul\":62:78   */\n      swap1\n      pop\n        /* \"#utility.yul\":7:84   */\n      swap2\n      swap1\n      pop\n      jump\t// out\n        /* \"#utility.yul\":90:208   */\n    tag_24:\n        /* \"#utility.yul\":177:201   */\n      tag_41\n        /* \"#utility.yul\":195:200   */\n      dup2\n        /* \"#utility.yul\":177:201   */\n      tag_23\n      jump\t// in\n    tag_41:\n        /* \"#utility.yul\":172:175   */\n      dup3\n        /* \"#utility.yul\":165:202   */\n      mstore\n        /* \"#utility.yul\":90:208   */\n      pop\n      pop\n      jump\t// out\n        /* \"#utility.yul\":214:436   */\n    tag_8:\n        /* \"#utility.yul\":307:311   */\n      0x00\n        /* \"#utility.yul\":345:347   */\n      0x20\n        /* \"#utility.yul\":334:343   */\n      dup3\n        /* \"#utility.yul\":330:348   */\n      add\n        /* \"#utility.yul\":322:348   */\n      swap1\n      pop\n        /* \"#utility.yul\":358:429   */\n      tag_43\n        /* \"#utility.yul\":426:427   */\n      0x00\n        /* \"#utility.yul\":415:424   */\n      dup4\n        /* \"#utility.yul\":411:428   */\n      add\n        /* \"#utility.yul\":402:408   */\n      dup5\n        /* \"#utility.yul\":358:429   */\n      tag_24\n      jump\t// in\n    tag_43:\n        /* \"#utility.yul\":214:436   */\n      swap3\n      swap2\n      pop\n      pop\n      jump\t// out\n        /* \"#utility.yul\":523:640   */\n    tag_26:\n        /* \"#utility.yul\":632:633   */\n      0x00\n        /* \"#utility.yul\":629:630   */\n      0x00\n        /* \"#utility.yul\":622:634   */\n      revert\n        /* \"#utility.yul\":646:763   */\n    tag_27:\n        /* \"#utility.yul\":755:756   */\n      0x00\n        /* \"#utility.yul\":752:753   */\n      0x00\n        /* \"#utility.yul\":745:757   */\n      revert\n        /* \"#utility.yul\":769:886   */\n    tag_28:\n        /* \"#utility.yul\":878:879   */\n      0x00\n        /* \"#utility.yul\":875:876   */\n      0x00\n        /* \"#utility.yul\":868:880   */\n      revert\n        /* \"#utility.yul\":892:1009   */\n    tag_29:\n        /* \"#utility.yul\":1001:1002   */\n      0x00\n        /* \"#utility.yul\":998:999   */\n      0x00\n        /* \"#utility.yul\":991:1003   */\n      revert\n        /* \"#utility.yul\":1015:1132   */\n    tag_30:\n        /* \"#utility.yul\":1124:1125   */\n      0x00\n        /* \"#utility.yul\":1121:1122   */\n      0x00\n        /* \"#utility.yul\":1114:1126   */\n      revert\n        /* \"#utility.yul\":1152:1705   */\n    tag_31:\n        /* \"#utility.yul\":1210:1218   */\n      0x00\n        /* \"#utility.yul\":1220:1226   */\n      0x00\n        /* \"#utility.yul\":1270:1273   */\n      dup4\n        /* \"#utility.yul\":1263:1267   */\n      0x1f\n        /* \"#utility.yul\":1255:1261   */\n      dup5\n        /* \"#utility.yul\":1251:1268   */\n      add\n        /* \"#utility.yul\":1247:1274   */\n      slt\n        /* \"#utility.yul\":1237:1359   */\n      tag_51\n      jumpi\n        /* \"#utility.yul\":1278:1357   */\n      tag_52\n      tag_28\n      jump\t// in\n    tag_52:\n        /* \"#utility.yul\":1237:1359   */\n    tag_51:\n        /* \"#utility.yul\":1391:1397   */\n      dup3\n        /* \"#utility.yul\":1378:1398   */\n      calldataload\n        /* \"#utility.yul\":1368:1398   */\n      swap1\n      pop\n        /* \"#utility.yul\":1421:1439   */\n      0xffffffffffffffff\n        /* \"#utility.yul\":1413:1419   */\n      dup2\n        /* \"#utility.yul\":1410:1440   */\n      gt\n        /* \"#utility.yul\":1407:1524   */\n      iszero\n      tag_53\n      jumpi\n        /* \"#utility.yul\":1443:1522   */\n      tag_54\n      tag_29\n      jump\t// in\n    tag_54:\n        /* \"#utility.yul\":1407:1524   */\n    tag_53:\n        /* \"#utility.yul\":1557:1561   */\n      0x20\n        /* \"#utility.yul\":1549:1555   */\n      dup4\n        /* \"#utility.yul\":1545:1562   */\n      add\n        /* \"#utility.yul\":1533:1562   */\n      swap2\n      pop\n        /* \"#utility.yul\":1611:1614   */\n      dup4\n        /* \"#utility.yul\":1603:1607   */\n      0x01\n        /* \"#utility.yul\":1595:1601   */\n      dup3\n        /* \"#utility.yul\":1591:1608   */\n      mul\n        /* \"#utility.yul\":1581:1589   */\n      dup4\n        /* \"#utility.yul\":1577:1609   */\n      add\n        /* \"#utility.yul\":1574:1615   */\n      gt\n        /* \"#utility.yul\":1571:1699   */\n      iszero\n      tag_55\n      jumpi\n        /* \"#utility.yul\":1618:1697   */\n      tag_56\n      tag_30\n      jump\t// in\n    tag_56:\n        /* \"#utility.yul\":1571:1699   */\n    tag_55:\n        /* \"#utility.yul\":1152:1705   */\n      swap3\n      pop\n      swap3\n      swap1\n      pop\n      jump\t// out\n        /* \"#utility.yul\":1711:2240   */\n    tag_11:\n        /* \"#utility.yul\":1782:1788   */\n      0x00\n        /* \"#utility.yul\":1790:1796   */\n      0x00\n        /* \"#utility.yul\":1839:1841   */\n      0x20\n        /* \"#utility.yul\":1827:1836   */\n      dup4\n        /* \"#utility.yul\":1818:1825   */\n      dup6\n        /* \"#utility.yul\":1814:1837   */\n      sub\n        /* \"#utility.yul\":1810:1842   */\n      slt\n        /* \"#utility.yul\":1807:1926   */\n      iszero\n      tag_58\n      jumpi\n        /* \"#utility.yul\":1845:1924   */\n      tag_59\n      tag_26\n      jump\t// in\n    tag_59:\n        /* \"#utility.yul\":1807:1926   */\n    tag_58:\n        /* \"#utility.yul\":1993:1994   */\n      0x00\n        /* \"#utility.yul\":1982:1991   */\n      dup4\n        /* \"#utility.yul\":1978:1995   */\n      add\n        /* \"#utility.yul\":1965:1996   */\n      calldataload\n        /* \"#utility.yul\":2023:2041   */\n      0xffffffffffffffff\n        /* \"#utility.yul\":2015:2021   */\n      dup2\n        /* \"#utility.yul\":2012:2042   */\n      gt\n        /* \"#utility.yul\":2009:2126   */\n      iszero\n      tag_60\n      jumpi\n        /* \"#utility.yul\":2045:2124   */\n      tag_61\n      tag_27\n      jump\t// in\n    tag_61:\n        /* \"#utility.yul\":2009:2126   */\n    tag_60:\n        /* \"#utility.yul\":2158:2223   */\n      tag_62\n        /* \"#utility.yul\":2215:2222   */\n      dup6\n        /* \"#utility.yul\":2206:2212   */\n      dup3\n        /* \"#utility.yul\":2195:2204   */\n      dup7\n        /* \"#utility.yul\":2191:2213   */\n      add\n        /* \"#utility.yul\":2158:2223   */\n      tag_31\n      jump\t// in\n    tag_62:\n        /* \"#utility.yul\":2140:2223   */\n      swap3\n      pop\n      swap3\n      pop\n        /* \"#utility.yul\":1936:2233   */\n      pop\n        /* \"#utility.yul\":1711:2240   */\n      swap3\n      pop\n      swap3\n      swap1\n      pop\n      jump\t// out\n        /* \"#utility.yul\":2246:2323   */\n    tag_32:\n        /* \"#utility.yul\":2283:2290   */\n      0x00\n        /* \"#utility.yul\":2312:2317   */\n      dup2\n        /* \"#utility.yul\":2301:2317   */\n      swap1\n      pop\n        /* \"#utility.yul\":2246:2323   */\n      swap2\n      swap1\n      pop\n      jump\t// out\n        /* \"#utility.yul\":2329:2509   */\n    tag_33:\n        /* \"#utility.yul\":2377:2454   */\n      0x4e487b7100000000000000000000000000000000000000000000000000000000\n        /* \"#utility.yul\":2374:2375   */\n      0x00\n        /* \"#utility.yul\":2367:2455   */\n      mstore\n        /* \"#utility.yul\":2474:2478   */\n      0x11\n        /* \"#utility.yul\":2471:2472   */\n      0x04\n        /* \"#utility.yul\":2464:2479   */\n      mstore\n        /* \"#utility.yul\":2498:2502   */\n      0x24\n        /* \"#utility.yul\":2495:2496   */\n      0x00\n        /* \"#utility.yul\":2488:2503   */\n      revert\n        /* \"#utility.yul\":2515:2709   */\n    tag_15:\n        /* \"#utility.yul\":2555:2559   */\n      0x00\n        /* \"#utility.yul\":2575:2595   */\n      tag_66\n        /* \"#utility.yul\":2593:2594   */\n      dup3\n        /* \"#utility.yul\":2575:2595   */\n      tag_32\n      jump\t// in\n    tag_66:\n        /* \"#utility.yul\":2570:2595   */\n      swap2\n      pop\n        /* \"#utility.yul\":2609:2629   */\n      tag_67\n        /* \"#utility.yul\":2627:2628   */\n      dup4\n        /* \"#utility.yul\":2609:2629   */\n      tag_32\n      jump\t// in\n    tag_67:\n        /* \"#utility.yul\":2604:2629   */\n      swap3\n      pop\n        /* \"#utility.yul\":2653:2654   */\n      dup3\n        /* \"#utility.yul\":2650:2651   */\n      dup3\n        /* \"#utility.yul\":2646:2655   */\n      sub\n        /* \"#utility.yul\":2638:2655   */\n      swap1\n      pop\n        /* \"#utility.yul\":2677:2678   */\n      dup2\n        /* \"#utility.yul\":2671:2675   */\n      dup2\n        /* \"#utility.yul\":2668:2679   */\n      gt\n        /* \"#utility.yul\":2665:2702   */\n      iszero\n      tag_68\n      jumpi\n        /* \"#utility.yul\":2682:2700   */\n      tag_69\n      tag_33\n      jump\t// in\n    tag_69:\n        /* \"#utility.yul\":2665:2702   */\n    tag_68:\n        /* \"#utility.yul\":2515:2709   */\n      swap3\n      swap2\n      pop\n      pop\n      jump\t// out\n        /* \"#utility.yul\":2715:2833   */\n    tag_34:\n        /* \"#utility.yul\":2802:2826   */\n      tag_71\n        /* \"#utility.yul\":2820:2825   */\n      dup2\n        /* \"#utility.yul\":2802:2826   */\n      tag_32\n      jump\t// in\n    tag_71:\n        /* \"#utility.yul\":2797:2800   */\n      dup3\n        /* \"#utility.yul\":2790:2827   */\n      mstore\n        /* \"#utility.yul\":2715:2833   */\n      pop\n      pop\n      jump\t// out\n        /* \"#utility.yul\":2839:3061   */\n    tag_17:\n        /* \"#utility.yul\":2932:2936   */\n      0x00\n        /* \"#utility.yul\":2970:2972   */\n      0x20\n        /* \"#utility.yul\":2959:2968   */\n      dup3\n        /* \"#utility.yul\":2955:2973   */\n      add\n        /* \"#utility.yul\":2947:2973   */\n      swap1\n      pop\n        /* \"#utility.yul\":2983:3054   */\n      tag_73\n        /* \"#utility.yul\":3051:3052   */\n      0x00\n        /* \"#utility.yul\":3040:3049   */\n      dup4\n        /* \"#utility.yul\":3036:3053   */\n      add\n        /* \"#utility.yul\":3027:3033   */\n      dup5\n        /* \"#utility.yul\":2983:3054   */\n      tag_34\n      jump\t// in\n    tag_73:\n        /* \"#utility.yul\":2839:3061   */\n      swap3\n      swap2\n      pop\n      pop\n      jump\t// out\n        /* \"#utility.yul\":3067:3215   */\n    tag_35:\n        /* \"#utility.yul\":3169:3180   */\n      0x00\n        /* \"#utility.yul\":3206:3209   */\n      dup2\n        /* \"#utility.yul\":3191:3209   */\n      swap1\n      pop\n        /* \"#utility.yul\":3067:3215   */\n      swap3\n      swap2\n      pop\n      pop\n      jump\t// out\n        /* \"#utility.yul\":3221:3369   */\n    tag_36:\n        /* \"#utility.yul\":3319:3325   */\n      dup3\n        /* \"#utility.yul\":3314:3317   */\n      dup2\n        /* \"#utility.yul\":3309:3312   */\n      dup4\n        /* \"#utility.yul\":3296:3326   */\n      calldatacopy\n        /* \"#utility.yul\":3360:3361   */\n      0x00\n        /* \"#utility.yul\":3351:3357   */\n      dup4\n        /* \"#utility.yul\":3346:3349   */\n      dup4\n        /* \"#utility.yul\":3342:3358   */\n      add\n        /* \"#utility.yul\":3335:3362   */\n      mstore\n        /* \"#utility.yul\":3221:3369   */\n      pop\n      pop\n      pop\n      jump\t// out\n        /* \"#utility.yul\":3399:3729   */\n    tag_37:\n        /* \"#utility.yul\":3515:3518   */\n      0x00\n        /* \"#utility.yul\":3536:3625   */\n      tag_77\n        /* \"#utility.yul\":3618:3624   */\n      dup4\n        /* \"#utility.yul\":3613:3616   */\n      dup6\n        /* \"#utility.yul\":3536:3625   */\n      tag_35\n      jump\t// in\n    tag_77:\n        /* \"#utility.yul\":3529:3625   */\n      swap4\n      pop\n        /* \"#utility.yul\":3635:3691   */\n      tag_78\n        /* \"#utility.yul\":3684:3690   */\n      dup4\n        /* \"#utility.yul\":3679:3682   */\n      dup6\n        /* \"#utility.yul\":3672:3677   */\n      dup5\n        /* \"#utility.yul\":3635:3691   */\n      tag_36\n      jump\t// in\n    tag_78:\n        /* \"#utility.yul\":3716:3722   */\n      dup3\n        /* \"#utility.yul\":3711:3714   */\n      dup5\n        /* \"#utility.yul\":3707:3723   */\n      add\n        /* \"#utility.yul\":3700:3723   */\n      swap1\n      pop\n        /* \"#utility.yul\":3399:3729   */\n      swap4\n      swap3\n      pop\n      pop\n      pop\n      jump\t// out\n        /* \"#utility.yul\":3735:4030   */\n    tag_20:\n        /* \"#utility.yul\":3877:3880   */\n      0x00\n        /* \"#utility.yul\":3899:4004   */\n      tag_80\n        /* \"#utility.yul\":4000:4003   */\n      dup3\n        /* \"#utility.yul\":3991:3997   */\n      dup5\n        /* \"#utility.yul\":3983:3989   */\n      dup7\n        /* \"#utility.yul\":3899:4004   */\n      tag_37\n      jump\t// in\n    tag_80:\n        /* \"#utility.yul\":3892:4004   */\n      swap2\n      pop\n        /* \"#utility.yul\":4021:4024   */\n      dup2\n        /* \"#utility.yul\":4014:4024   */\n      swap1\n      pop\n        /* \"#utility.yul\":3735:4030   */\n      swap4\n      swap3\n      pop\n      pop\n      pop\n      jump\t// out\n\n    auxdata: 0xa2646970667358221220013740a2fcdede30b12e71839ac89562a9608133c7f5c788503527620bdc5f0c64736f6c634300081e0033\n}\n",
				"bytecode": {
					"linkReferences": {},
					"object": "6080604052348015600e575f5ffd5b506103508061001c5f395ff3fe608060405234801561000f575f5ffd5b5060043610610034575f3560e01c8063517d217e146100385780635835d92214610056575b5f5ffd5b610040610086565b60405161004d9190610168565b60405180910390f35b610070600480360381019061006b91906101ea565b6100e4565b60405161007d9190610168565b60405180910390f35b60ff5f1b1960017f6719902dd113eb6a45fca0586cd9076c175b5e955e807b7798b727d3d4d60ac25f1c6100ba919061026b565b6040516020016100ca91906102ad565b604051602081830303815290604052805190602001201681565b5f60ff5f1b19600184846040516020016100ff929190610302565b604051602081830303815290604052805190602001205f1c610121919061026b565b60405160200161013191906102ad565b6040516020818303038152906040528051906020012016905092915050565b5f819050919050565b61016281610150565b82525050565b5f60208201905061017b5f830184610159565b92915050565b5f5ffd5b5f5ffd5b5f5ffd5b5f5ffd5b5f5ffd5b5f5f83601f8401126101aa576101a9610189565b5b8235905067ffffffffffffffff8111156101c7576101c661018d565b5b6020830191508360018202830111156101e3576101e2610191565b5b9250929050565b5f5f60208385031215610200576101ff610181565b5b5f83013567ffffffffffffffff81111561021d5761021c610185565b5b61022985828601610195565b92509250509250929050565b5f819050919050565b7f4e487b71000000000000000000000000000000000000000000000000000000005f52601160045260245ffd5b5f61027582610235565b915061028083610235565b92508282039050818111156102985761029761023e565b5b92915050565b6102a781610235565b82525050565b5f6020820190506102c05f83018461029e565b92915050565b5f81905092915050565b828183375f83830152505050565b5f6102e983856102c6565b93506102f68385846102d0565b82840190509392505050565b5f61030e8284866102de565b9150819050939250505056fea2646970667358221220013740a2fcdede30b12e71839ac89562a9608133c7f5c788503527620bdc5f0c64736f6c634300081e0033",
					"opcodes": "PUSH1 0x80 PUSH1 0x40 MSTORE CALLVALUE DUP1 ISZERO PUSH1 0xE JUMPI PUSH0 PUSH0 REVERT JUMPDEST POP PUSH2 0x350 DUP1 PUSH2 0x1C PUSH0 CODECOPY PUSH0 RETURN INVALID PUSH1 0x80 PUSH1 0x40 MSTORE CALLVALUE DUP1 ISZERO PUSH2 0xF JUMPI PUSH0 PUSH0 REVERT JUMPDEST POP PUSH1 0x4 CALLDATASIZE LT PUSH2 0x34 JUMPI PUSH0 CALLDATALOAD PUSH1 0xE0 SHR DUP1 PUSH4 0x517D217E EQ PUSH2 0x38 JUMPI DUP1 PUSH4 0x5835D922 EQ PUSH2 0x56 JUMPI JUMPDEST PUSH0 PUSH0 REVERT JUMPDEST PUSH2 0x40 PUSH2 0x86 JUMP JUMPDEST PUSH1 0x40 MLOAD PUSH2 0x4D SWAP2 SWAP1 PUSH2 0x168 JUMP JUMPDEST PUSH1 0x40 MLOAD DUP1 SWAP2 SUB SWAP1 RETURN JUMPDEST PUSH2 0x70 PUSH1 0x4 DUP1 CALLDATASIZE SUB DUP2 ADD SWAP1 PUSH2 0x6B SWAP2 SWAP1 PUSH2 0x1EA JUMP JUMPDEST PUSH2 0xE4 JUMP JUMPDEST PUSH1 0x40 MLOAD PUSH2 0x7D SWAP2 SWAP1 PUSH2 0x168 JUMP JUMPDEST PUSH1 0x40 MLOAD DUP1 SWAP2 SUB SWAP1 RETURN JUMPDEST PUSH1 0xFF PUSH0 SHL NOT PUSH1 0x1 PUSH32 0x6719902DD113EB6A45FCA0586CD9076C175B5E955E807B7798B727D3D4D60AC2 PUSH0 SHR PUSH2 0xBA SWAP2 SWAP1 PUSH2 0x26B JUMP JUMPDEST PUSH1 0x40 MLOAD PUSH1 0x20 ADD PUSH2 0xCA SWAP2 SWAP1 PUSH2 0x2AD JUMP JUMPDEST PUSH1 0x40 MLOAD PUSH1 0x20 DUP2 DUP4 SUB SUB DUP2 MSTORE SWAP1 PUSH1 0x40 MSTORE DUP1 MLOAD SWAP1 PUSH1 0x20 ADD KECCAK256 AND DUP2 JUMP JUMPDEST PUSH0 PUSH1 0xFF PUSH0 SHL NOT PUSH1 0x1 DUP5 DUP5 PUSH1 0x40 MLOAD PUSH1 0x20 ADD PUSH2 0xFF SWAP3 SWAP2 SWAP1 PUSH2 0x302 JUMP JUMPDEST PUSH1 0x40 MLOAD PUSH1 0x20 DUP2 DUP4 SUB SUB DUP2 MSTORE SWAP1 PUSH1 0x40 MSTORE DUP1 MLOAD SWAP1 PUSH1 0x20 ADD KECCAK256 PUSH0 SHR PUSH2 0x121 SWAP2 SWAP1 PUSH2 0x26B JUMP JUMPDEST PUSH1 0x40 MLOAD PUSH1 0x20 ADD PUSH2 0x131 SWAP2 SWAP1 PUSH2 0x2AD JUMP JUMPDEST PUSH1 0x40 MLOAD PUSH1 0x20 DUP2 DUP4 SUB SUB DUP2 MSTORE SWAP1 PUSH1 0x40 MSTORE DUP1 MLOAD SWAP1 PUSH1 0x20 ADD KECCAK256 AND SWAP1 POP SWAP3 SWAP2 POP POP JUMP JUMPDEST PUSH0 DUP2 SWAP1 POP SWAP2 SWAP1 POP JUMP JUMPDEST PUSH2 0x162 DUP2 PUSH2 0x150 JUMP JUMPDEST DUP3 MSTORE POP POP JUMP JUMPDEST PUSH0 PUSH1 0x20 DUP3 ADD SWAP1 POP PUSH2 0x17B PUSH0 DUP4 ADD DUP5 PUSH2 0x159 JUMP JUMPDEST SWAP3 SWAP2 POP POP JUMP JUMPDEST PUSH0 PUSH0 REVERT JUMPDEST PUSH0 PUSH0 REVERT JUMPDEST PUSH0 PUSH0 REVERT JUMPDEST PUSH0 PUSH0 REVERT JUMPDEST PUSH0 PUSH0 REVERT JUMPDEST PUSH0 PUSH0 DUP4 PUSH1 0x1F DUP5 ADD SLT PUSH2 0x1AA JUMPI PUSH2 0x1A9 PUSH2 0x189 JUMP JUMPDEST JUMPDEST DUP3 CALLDATALOAD SWAP1 POP PUSH8 0xFFFFFFFFFFFFFFFF DUP2 GT ISZERO PUSH2 0x1C7 JUMPI PUSH2 0x1C6 PUSH2 0x18D JUMP JUMPDEST JUMPDEST PUSH1 0x20 DUP4 ADD SWAP2 POP DUP4 PUSH1 0x1 DUP3 MUL DUP4 ADD GT ISZERO PUSH2 0x1E3 JUMPI PUSH2 0x1E2 PUSH2 0x191 JUMP JUMPDEST JUMPDEST SWAP3 POP SWAP3 SWAP1 POP JUMP JUMPDEST PUSH0 PUSH0 PUSH1 0x20 DUP4 DUP6 SUB SLT ISZERO PUSH2 0x200 JUMPI PUSH2 0x1FF PUSH2 0x181 JUMP JUMPDEST JUMPDEST PUSH0 DUP4 ADD CALLDATALOAD PUSH8 0xFFFFFFFFFFFFFFFF DUP2 GT ISZERO PUSH2 0x21D JUMPI PUSH2 0x21C PUSH2 0x185 JUMP JUMPDEST JUMPDEST PUSH2 0x229 DUP6 DUP3 DUP7 ADD PUSH2 0x195 JUMP JUMPDEST SWAP3 POP SWAP3 POP POP SWAP3 POP SWAP3 SWAP1 POP JUMP JUMPDEST PUSH0 DUP2 SWAP1 POP SWAP2 SWAP1 POP JUMP JUMPDEST PUSH32 0x4E487B7100000000000000000000000000000000000000000000000000000000 PUSH0 MSTORE PUSH1 0x11 PUSH1 0x4 MSTORE PUSH1 0x24 PUSH0 REVERT JUMPDEST PUSH0 PUSH2 0x275 DUP3 PUSH2 0x235 JUMP JUMPDEST SWAP2 POP PUSH2 0x280 DUP4 PUSH2 0x235 JUMP JUMPDEST SWAP3 POP DUP3 DUP3 SUB SWAP1 POP DUP2 DUP2 GT ISZERO PUSH2 0x298 JUMPI PUSH2 0x297 PUSH2 0x23E JUMP JUMPDEST JUMPDEST SWAP3 SWAP2 POP POP JUMP JUMPDEST PUSH2 0x2A7 DUP2 PUSH2 0x235 JUMP JUMPDEST DUP3 MSTORE POP POP JUMP JUMPDEST PUSH0 PUSH1 0x20 DUP3 ADD SWAP1 POP PUSH2 0x2C0 PUSH0 DUP4 ADD DUP5 PUSH2 0x29E JUMP JUMPDEST SWAP3 SWAP2 POP POP JUMP JUMPDEST PUSH0 DUP2 SWAP1 POP SWAP3 SWAP2 POP POP JUMP JUMPDEST DUP3 DUP2 DUP4 CALLDATACOPY PUSH0 DUP4 DUP4 ADD MSTORE POP POP POP JUMP JUMPDEST PUSH0 PUSH2 0x2E9 DUP4 DUP6 PUSH2 0x2C6 JUMP JUMPDEST SWAP4 POP PUSH2 0x2F6 DUP4 DUP6 DUP5 PUSH2 0x2D0 JUMP JUMPDEST DUP3 DUP5 ADD SWAP1 POP SWAP4 SWAP3 POP POP POP JUMP JUMPDEST PUSH0 PUSH2 0x30E DUP3 DUP5 DUP7 PUSH2 0x2DE JUMP JUMPDEST SWAP2 POP DUP2 SWAP1 POP SWAP4 SWAP3 POP POP POP JUMP INVALID LOG2 PUSH5 0x6970667358 0x22 SLT KECCAK256 ADD CALLDATACOPY BLOCKHASH LOG2 0xFC 0xDE 0xDE ADDRESS 0xB1 0x2E PUSH18 0x839AC89562A9608133C7F5C788503527620B 0xDC PUSH0 0xC PUSH5 0x736F6C6343 STOP ADDMOD 0x1E STOP CALLER "
				},
				"gasEstimates": {
					"creation": {
						"codeDepositCost": "169600",
						"executionCost": "212",
						"totalCost": "169812"
					},
					"external": {
						"STORAGE_SLOT()": "infinite",
						"slot(string)": "infinite"
					}
				},
				"methodIdentifiers": {
					"STORAGE_SLOT()": "517d217e",
					"slot(string)": "5835d922"
				}
			},
			"storageLayout": {
				"storage": [],
				"types": null
			},
			"userdoc": {
				"kind": "user",
				"methods": {},
				"version": 1
			}
		}
	}
}